:100000000C9463000C948B000C948B000C94810472
:100010000C9481040C9481040C948B000C948B0040
:100020000C948B000C948B000C948B000C948B0024
:100030000C948B000C948B000C948B000C948B0014
:100040000C9437040C948B000C9405040C94DF037F
:100050000C948B000C948B000C948B000C948B00F4
:100060000C948B000C948B000000000024002700EF
:100070002A0000000008000201000003040700003D
:1000800000000000000000000000250028002B00F8
:1000900000000000230026002900040404040404D6
:1000A0000404020202020202030303030303010227
:1000B00004081020408001020408102001020408F6
:1000C0001020FB04AC0711241FBECFEFD8E0DEBF29
:1000D000CDBF11E0A0E0B1E0E6E4F2E102C005909E
:1000E0000D92AA38B107D9F722E0AAE8B1E001C021
:1000F0001D92A83DB207E1F710E0C2E6D0E004C0CF
:100100002197FE010E94DE07C136D107C9F70E9480
:10011000FB050C9416090C940000EEE0F2E0A089B7
:10012000B18982E08C93A485B5851C92A685B7859C
:1001300080E18C93108EA489B58986E08C93A28986
:10014000B3898C9180618C93A289B3898C918860EA
:100150008C93A289B3898C9180688C930288F389EF
:10016000E02D80818F7D80830895CF92DF92EF9282
:10017000FF920F931F93CF93DF936C017A018B0152
:10018000C0E0D0E0CE15DF0589F0D8016D918D017A
:10019000D601ED91FC910190F081E02DC601099509
:1001A000892B11F47E0102C02196ECCFC701DF91AB
:1001B000CF911F910F91FF90EF90DF90CF90089516
:1001C000FC01918D828D981761F0828DDF01A80F5F
:1001D000B11D5D968C91928D9F5F9F73928F90E081
:1001E00008958FEF9FEF0895FC01918D828D9817F0
:1001F00031F0828DE80FF11D858D90E008958FEF2D
:100200009FEF0895FC01918D228D892F90E0805CF5
:100210009F4F821B91098F73992708958EE092E07A
:100220000E94020121E0892B09F420E0822F089529
:10023000FC01848DDF01A80FB11DA35ABF4F2C9183
:10024000848D90E001968F739927848FA689B78952
:100250002C93A089B1898C9180648C93938D848D2B
:10026000981306C00288F389E02D80818F7D8083FA
:100270000895EF92FF920F931F93CF93DF93EC01BA
:1002800081E0888F9B8D8C8D981305C0E889F98952
:10029000808185FD24C0F62E0B8D10E00F5F1F4F6F
:1002A0000F731127E02E8C8DE8120CC00FB607FCDF
:1002B000FACFE889F989808185FFF5CFCE010E94C8
:1002C0001801F1CF8B8DFE01E80FF11DE35AFF4FAE
:1002D000F0820B8FEA89FB898081806207C0EE89FA
:1002E000FF896083E889F98980818064808381E067
:1002F00090E0DF91CF911F910F91FF90EF900895C3
:10030000CF93DF93EC01888D8823C9F0EA89FB89BC
:10031000808185FD05C0A889B9898C9186FD0FC0B3
:100320000FB607FCF5CF808185FFF2CFA889B98988
:100330008C9185FFEDCFCE010E941801E7CFDF91B0
:10034000CF91089580E090E0892B29F00E940E0162
:1003500081110C940000089590E0FC01EE58FF4FCD
:100360003491FC01E255FF4F2491FC01E656FF4F0A
:10037000E491EE2309F43BC0332339F1333091F09B
:1003800038F43130A9F0323001F584B58F7D12C0D8
:10039000373091F03830A1F03430B9F480918000DA
:1003A0008F7D03C0809180008F77809380000DC087
:1003B00084B58F7784BD09C08091B0008F7703C06A
:1003C0008091B0008F7D8093B000F0E0EE0FFF1FB2
:1003D000EA57FF4FA591B4918FB7F894EC91611152
:1003E00003C020952E2301C02E2B2C938FBF089580
:1003F000CF93DF9390E0FC01E255FF4F2491FC0185
:10040000E656FF4F8491882361F190E0880F991F91
:10041000FC01E859FF4FC591D491FC01EA57FF4F09
:10042000A591B491611109C09FB7F8948881209576
:1004300082238883EC912E230BC0623061F49FB736
:10044000F8943881822F809583238883EC912E2B1A
:100450002C939FBF06C08FB7F894E8812E2B28837A
:100460008FBFDF91CF9108951F93CF93DF93182F04
:10047000EB0161E00E94F801209711F460E004C0F4
:10048000CF3FD10539F461E0812FDF91CF911F91EA
:100490000C94AC01E12FF0E0EE58FF4FE491E33013
:1004A000F9F048F4E130B9F0E230A1F584B58062AA
:1004B00084BDC8BD34C0E730E9F0E83019F1E4305C
:1004C00049F580918000806280938000D0938B00FA
:1004D000C0938A0024C084B5806884BDC7BD1FC096
:1004E00080918000806880938000D0938900C093C1
:1004F000880015C08091B00080688093B000C093E0
:10050000B3000DC08091B00080628093B000C093B2
:10051000B40005C0C038D1050CF0B5CFAFCFDF9126
:10052000CF911F9108953FB7F8948091CB0190919E
:10053000CC01A091CD01B091CE0126B5A89B05C0FC
:100540002F3F19F00196A11DB11D3FBFBA2FA92F52
:10055000982F8827820F911DA11DB11DBC01CD01CF
:1005600042E0660F771F881F991F4A95D1F70895BB
:100570008F929F92AF92BF92CF92DF92EF92FF92B3
:100580006B017C010E9493024B015C01C114D104F8
:10059000E104F104F1F00E949302DC01CB0188191F
:1005A0009909AA09BB09883E9340A105B10570F3DA
:1005B00021E0C21AD108E108F10888EE880E83E034
:1005C000981EA11CB11CC114D104E104F10419F757
:1005D000DDCFFF90EF90DF90CF90BF90AF909F90D6
:1005E0008F9008952091D5013091D60128173907B1
:1005F00071F49091D3018091D401981741F0E0916A
:10060000D301F0E0E657FE4F808190E008958FEF30
:100610009FEF089508951F93CF93DF93DC015C96BD
:100620002D913C915D972115310539F481E090E0E1
:1006300013969C938E9312973DC05196ED91FC9129
:10064000529750969C915097892F80951FB75E9630
:100650004C915E9741FB772770F941FD6095F894C6
:100660004081772311F0492B01C048234083E901E1
:100670002197F1F748E0508160FF02C0592B01C07B
:1006800058235083E9012197F1F76695415099F776
:10069000772321F090818923808303C08081982B68
:1006A00090831FBF5C968D919C915D970197F1F7A8
:1006B00021E030E0C901DF91CF911F910895209191
:1006C000D5013091D6012817390771F48091D401F2
:1006D0002091D30190E0805C9F4F821B910960E4E0
:1006E00070E00E94B607089580E090E008952091A0
:1006F000D5013091D60128173907B9F49091D3016B
:100700008091D401981789F0E091D301F0E0E65789
:10071000FE4F80812091D30130E02F5F3F4F2F7338
:1007200033272093D30190E008958FEF9FEF089532
:10073000E091D501F091D601E817F90769F4A38992
:10074000B4899C918589809589238C931092D601D8
:100750001092D50181E0089580E00895611571053A
:1007600079F0FB0101900020E9F73197AF01461BBA
:10077000570BDC01ED91FC910280F381E02D09948F
:1007800080E090E00895CF93DF93EC0168E271E0A0
:100790008EE092E00E94AE036DE471E08EE092E0A4
:1007A0000E94AE0361E088810E94AC016FEF70E0AF
:1007B0008A81DF91CF910C9434020E9411091F921B
:1007C0000F920FB60F9211242F933F934F935F9385
:1007D0006F937F938F939F93AF93BF93EF93FF9309
:1007E0008EE092E00E941801FF91EF91BF91AF91CE
:1007F0009F918F917F916F915F914F913F912F9139
:100800000F900FBE0F901F9018951F920F920FB66A
:100810000F9211242F938F939F93EF93FF93E09167
:100820001E02F0911F028081E0912402F0912502C6
:1008300082FD12C09081809127028F5F8F7320917B
:100840002802821751F0E0912702F0E0E25FFD4FAD
:10085000958F8093270201C08081FF91EF919F9136
:100860008F912F910F900FBE0F901F9018951F9290
:100870000F920FB60F9211242F933F938F939F9354
:10088000AF93BF938091CF019091D001A091D101FE
:10089000B091D2013091CA0123E0230F2D3720F40B
:1008A0000196A11DB11D05C026E8230F0296A11DCA
:1008B000B11D2093CA018093CF019093D001A093E2
:1008C000D101B093D2018091CB019091CC01A09144
:1008D000CD01B091CE010196A11DB11D8093CB0138
:1008E0009093CC01A093CD01B093CE01BF91AF9175
:1008F0009F918F913F912F910F900FBE0F901F905E
:1009000018951F920F920FB60F9211242F933F93B9
:100910004F935F936F937F938F939F93AF93BF9307
:10092000EF93FF93E091D501F091D601309709F450
:1009300051C0968DA685B785858591FF04C09C9191
:10094000892329F447C09C91892309F043C0A389D6
:10095000B4899C918589809589238C938689978910
:100960000197F1F7608D718DA685B785558538E0C3
:1009700020E0CB010197F1F7822F90E095958795C4
:10098000282F4C91452309F02068315091F7868D2E
:1009900081FD20958091D40190E001968F73992775
:1009A0003091D301381749F0A091D401B0E0A65797
:1009B000BE4F2C938093D40103C0868D8160868FB7
:1009C000828D938D0197F1F7A389B4899C918589D4
:1009D000892B8C93FF91EF91BF91AF919F918F9154
:1009E0007F916F915F914F913F912F910F900FBE2B
:1009F0000F901F901895CF93DF93109211021092D1
:100A0000100288EE93E0A0E0B0E080931202909391
:100A10001302A0931402B09315022CE031E030933E
:100A20000F0220930E0225EC30E030931B0220933E
:100A30001A0224EC30E030931D0220931C0220ECBB
:100A400030E030931F0220931E0221EC30E03093FF
:100A500021022093200222EC30E0309323022093E5
:100A6000220226EC30E030932502209324021092DB
:100A70002702109228021092290210922A022CE0DA
:100A80002093AB0229E02093AC0223E02093AD0237
:100A90002EE02093AE022DE02093AF0228E02093B9
:100AA000B0022BE02093B1022FE02093B20210920B
:100AB000B8021092B7028093B9029093BA02A09341
:100AC000BB02B093BC028CE191E09093B60280939C
:100AD000B5021092CC021092CB021092CE0210926C
:100AE000CD021092D0021092CF021092D202109238
:100AF000D1026091D3026E7F6D7F6093D3026695C1
:100B0000617081E0682784E00E94AC0161E084E0CC
:100B10000E94F801E2EBF0E0E491E093C502EEE917
:100B2000F0E0E491F0E0EE0FFF1FEA57FF4F8591F0
:100B300094919093C7028093C60260E085E00E9482
:100B4000F8018091D30281FD04C061E085E00E943C
:100B5000AC0185E08093C102E3EBF0E0E491E09327
:100B6000C202EFE9F0E0E491F0E0EE0FFF1FE05782
:100B7000FF4F859194919093C4028093C30288E0C3
:100B800090E00E94E407EC018CE0888389E089838F
:100B900083E08A838EE08B838DE08C8388E08D8375
:100BA0008BE08E838FE08F8361E08CE00E94F80100
:100BB00061E089810E94F80161E08A810E94F80168
:100BC00060E08B810E94F80161E08C810E94F80155
:100BD00061E08D810E94F80161E08E810E94F80140
:100BE00060E08F810E94F801D093B402C093B302F9
:100BF000DF91CF910895789484B5826084BD84B5E7
:100C0000816084BD85B5826085BD85B5816085BD07
:100C100080916E00816080936E00109281008091BF
:100C20008100826080938100809181008160809347
:100C30008100809180008160809380008091B1006C
:100C400084608093B1008091B00081608093B00097
:100C500080917A00846080937A0080917A0082602B
:100C600080937A0080917A00816080937A008091ED
:100C70007A00806880937A001092C10010920A0274
:100C800010920B0210920C0210920D021092D801D9
:100C90001092D9011092DA011092DB0160ED77E039
:100CA00080E090E00E94B8028EE092E0909309020A
:100CB000809308020E948D002FB7F8948091CF0195
:100CC0009091D001A091D101B091D2012FBF40915C
:100CD000D8015091D9016091DA017091DB01841B38
:100CE000950BA60BB70BC297A105B10538F463E0CD
:100CF00070E080E090E00E94B802DECF2FB7F89459
:100D00008091CF019091D001A091D101B091D201F9
:100D10002FBF8093D8019093D901A093DA01B093AB
:100D2000DB016EE371E080910802909109020E945C
:100D3000AE036AE070E080E090E00E94B80281E0DB
:100D40008093DC010E948D001092D0021092CF029D
:100D50001092CE021092CD021092CC021092CB02D1
:100D60008FE190E09093D2028093D1029091C102E2
:100D7000963108F057C021E030E03093CC02209348
:100D8000CB022DE130E03093CE022093CD022DE056
:100D900030E03093D0022093CF0220916800983049
:100DA00050F031E09E3008F430E081E001C0880F5F
:100DB0003A95EAF701C084E0822B8093680098306E
:100DC00038F09E3040F0963148F020E030E008C026
:100DD0002DE630E005C02BE630E002C02CE630E026
:100DE0003093C9022093C802983030F481E001C0EA
:100DF000880F9A95EAF70EC0292F30E09E3018F43C
:100E00002850310902C02E50310981E001C0880FFD
:100E10002A95EAF78093CA028091D1029091D2027A
:100E20000197F1F78091CF029091D002892B21F1A7
:100E30008091D5019091D60122E0853B9207E1F0A7
:100E4000009711F00E9498038091D3028E7F8093C7
:100E5000D3021092D4011092D30185EB92E09093CB
:100E6000D6018093D501E091C802F091C90290812A
:100E70008091CA02892B808385EB92E00E945F03F8
:100E8000892BB9F060E571E08EE092E00E94AE033C
:100E900085EB92E00E94770380930101682F8EE03A
:100EA00092E00E9439016DE471E08EE092E00E94D0
:100EB000AE038EE092E00E940201892BB9F062E657
:100EC00071E08EE092E00E94AE038EE092E00E941C
:100ED000E00080930001682F85EB92E00E940B03F5
:100EE0006DE471E085EB92E00E94AE038091010118
:100EF000882379F1813331F48091B3029091B40267
:100F00000E94C30380910101823331F48091B302C6
:100F10009091B4020E94C303809101018333C9F40C
:100F2000C091B302D091B40263E771E08EE092E029
:100F30000E94AE036DE471E08EE092E00E94AE0389
:100F400061E08C810E94AC0160E070E08E810E94C3
:100F500034020E94A20190CF8CE191E09093B602FE
:100F60008093B50285EB92E00C94980397FB072ED3
:100F700016F4009407D077FD09D00E94CA0707FC39
:100F800005D03EF4909581959F4F08957095619599
:100F90007F4F0895AA1BBB1B51E107C0AA1FBB1FAF
:100FA000A617B70710F0A61BB70B881F991F5A95F5
:100FB000A9F780959095BC01CD010895EE0FFF1F14
:100FC0000590F491E02D0994CF93DF938230910541
:100FD00010F482E090E0E091D602F091D70220E098
:100FE00030E0C0E0D0E0309711F1408151814817E6
:100FF0005907C0F04817590761F4828193812097FF
:1010000019F09B838A832BC09093D7028093D602DA
:1010100026C02115310519F04217530718F49A011B
:10102000BE01DF01EF010280F381E02DDCCF21154D
:10103000310509F1281B390B2430310590F4129643
:101040008D919C9113976115710521F0FB0193839C
:10105000828304C09093D7028093D602FD0132961A
:1010600044C0FD01E20FF31F819391932250310997
:101070002D933C933AC02091D4023091D502232B7A
:1010800041F420910401309105013093D502209361
:10109000D40220910201309103012115310541F460
:1010A0002DB73EB74091060150910701241B350B27
:1010B000E091D402F091D502E217F307A0F42E1BC1
:1010C0003F0B2817390778F0AC014E5F5F4F2417AC
:1010D000350748F04E0F5F1F5093D5024093D4025E
:1010E0008193919302C0E0E0F0E0CF01DF91CF91D6
:1010F00008950F931F93CF93DF93009709F48CC04B
:10110000FC013297138212820091D6021091D7020D
:101110000115110581F420813181820F931F2091E7
:10112000D4023091D5022817390779F5F093D5020A
:10113000E093D40271C0D80140E050E0AE17BF0781
:1011400050F412962D913C911397AD012115310564
:1011500009F1D901F3CF9D01DA0133832283608144
:101160007181860F971F8217930769F4EC0128811C
:101170003981260F371F2E5F3F4F318320838A81AD
:101180009B8193838283452B29F4F093D702E093CC
:10119000D60242C01396FC93EE931297ED0149914B
:1011A00059919E01240F351FE217F30771F48081D6
:1011B0009181840F951F029611969C938E93828144
:1011C000938113969C938E931297E0E0F0E0D80100
:1011D00012968D919C911397009719F0F8018C014C
:1011E000F6CF8D919C9198012E5F3F4F820F931FF8
:1011F0002091D4023091D5022817390769F430972D
:1012000029F41092D7021092D60202C013821282E1
:101210001093D5020093D402DF91CF911F910F91CB
:10122000089581E090E0F8940C94160910E0C2E66D
:10123000D0E004C0FE010E94DE072196C336D1072C
:06124000C9F7F894FFCF8E
:1012460030300000D8028000000000003901B500EF
:101256000201E000F4008001000000000B03B5006D
:101266005F037703F2020A034D312053706565640C
:10127600203130302520466F727761726400564DFA
:101286004450565F317C315F564D4450560D0A002E
:101296004461746F7320526563696269646F733A5F
:1012A60020004461746F7320456E766961646F73C4
:1012B6003A20004D32205370656564203130302568
:0A12C60020466F7277617264000029
:00000001FF
